:1000000018C03CC03BC03AC07FC538C037C036C0FE
:1000100035C034C033C032C031C030C02FC001023F
:10002000040810200101010101010038003792038A
:10003000990311241FBECFE5D2E0DEBFCDBF11E092
:10004000A0E6B0E0ECE4F3E102C005900D92A63129
:10005000B107D9F721E0A6E1B1E001C01D92AD33AF
:10006000B207E1F710E0C0E3D0E003C02297FE0141
:10007000B1D7CE32D107D1F7DDD65CC9C1CF8BE184
:1000800091E06CD340E060E080E026D59B01AC01BC
:1000900060E070E08BE191E0A9D48BE191E0CCD3FA
:1000A00088E000D683C6282F30E0C90163E070E005
:1000B000C5D6FC01EF5FFE4F4281618180810CD586
:1000C0009B01AC0160E070E08BE191E08FD48BE1AB
:1000D00091E0B2D368E873E180E090E090C52F92A0
:1000E0003F924F925F926F927F928F929F92AF92C8
:1000F000BF92CF92DF92EF92FF920F931F93CF9315
:10010000DF93CDB7DEB762970FB6F894DEBF0FBEB0
:10011000CDBF182FF62ED42E2A834A2D622F70E0E1
:10012000282F30E01B01221A330A388A2F86A02E8E
:10013000B12CBA86A986AF2DB0E0AA1ABB0ABC8240
:10014000AB828E2D90E098878F838D2D90E02F804D
:100150003884281A390A3E822D82A12CB12C812C98
:10016000912C412C512C19826C2C712C1C01EF818B
:10017000F8852E1A3F0A38862F821D0189859A85B7
:10018000281A390AD901A61BB70BBA8BA98B842F61
:1001900090E0A0E0B0E08B879C87AD87BE87AF85FD
:1001A000B8894A0E5B1EEB81FC818E0E9F1E8D81ED
:1001B0009E81A80EB91E99819C1561F18F81988549
:1001C0008A0D9B1DB3015FD64D2D460FC101880DD1
:1001D000991DB30158D62F2D260F89899A89840D30
:1001E000951DB30150D6862F622F810F75D49B01C8
:1001F000AC0160E070E08BE191E0F8D38BE191E03D
:100200001BD36B857C858D859E85F9D499819F5FF5
:100210009983C5CF4E2D602F8A815ED49B01AC019E
:1002200060E070E08BE191E0E1D38BE191E06296D8
:100230000FB6F894DEBF0FBECDBFDF91CF911F91F7
:100240000F91FF90EF90DF90CF90BF90AF909F9075
:100250008F907F906F905F904F903F902F90ECC267
:10026000CF93DF93D82F4FE760E080E035D49B0138
:10027000AC0160E070E08BE191E0B8D38BE191E0FC
:10028000DBD266EA7EE080E090E0B9D4C5E04FE7DB
:1002900060E080E021D49B01AC0160E070E08BE184
:1002A00091E0A4D38BE191E0C7D268EC70E080E0EC
:1002B00090E0A5D448E468E488E40ED49B01AC0146
:1002C00060E070E08BE191E091D38BE191E0B4D2FA
:1002D00068EC70E080E090E092D4C150C1F68D2FC0
:1002E00090E063E070E0AAD5FC01EF5FFE4F428131
:1002F00061818081F1D39B01AC0160E070E08BE112
:1003000091E074D38BE191E0DF91CF9195C2AF92F0
:10031000CF92EF920F931F93CF93DF93282F30E06C
:10032000C90163E070E08AD5FC01EF5FFE4FD28126
:10033000C18110818CE2A82E94E6C92EE12C00E048
:1003400020E04D2F6C2F812FCADE6EEE72E080E030
:1003500090E055D44D2F6C2F812FBED39B01AC0163
:1003600060E070E08BE191E041D38BE191E0DF91BF
:10037000CF911F910F91EF90CF90AF905DC26F9290
:100380007F928F929F92AF92BF92CF92DF92EF9225
:10039000FF920F931F93CF93DF93C82F25E030E098
:1003A00040E050E060E070E0CB0129D5862E8C2F34
:1003B00090E063E070E042D5FC01EF5FFE4FF28019
:1003C0001181B080EAE0AE2EFFE0CF2EE12C00E0FC
:1003D00020E04F2D612F8B2D82DE912CC4016EE128
:1003E00070E02CD5EC01FC01E559FF4FE280018162
:1003F000208140E060E080E072DE62E370E080E057
:1004000090E0FDD3C059DF4FA9E0DA2EAE01415094
:1004100051099E0122503109CE010397DE01149744
:100420003E0165E0661A71086AE0A62E7FE0C72EDD
:10043000E880FA010081F9012081FC0140816C9182
:10044000F30180814CDE62E370E080E090E0D7D37E
:10045000DA942396D110DACFC4016EE170E0EED4C5
:10046000FC01E559FF4FE12C00E020E0458D648D53
:10047000838D35DEEF2C012F2B2D40E060E080E0F6
:100480002EDEDF91CF911F910F91FF90EF90DF90C3
:10049000CF90BF90AF909F908F907F906F90089576
:1004A000AF92CF92DF92EF92FF920F931F93CF9371
:1004B000DF9380911A01811171C025E130E040E0A5
:1004C00050E06CE070E080E090E099D4062F88EC7A
:1004D000C82ED12CE12CF12C10E0C0E0D0E0101798
:1004E00020F5812F837080936A00E60190E063E03D
:1004F00070E0A4D4FC01EF5FFE4F428161818081F6
:10050000EBD29B01AC0160E070E08BE191E06ED238
:100510008BE191E091D1C701B60171D31F5F2AE54C
:10052000C20ED11CE11CF11CDACFBE0180E090E0CC
:1005300066D3C4E040E060E080E0CED29B01AC0135
:1005400060E070E08BE191E051D28BE191E074D1F9
:1005500068EC70E080E090E052D380916A0090E017
:1005600063E070E06BD4FC01EF5FFE4F428161817C
:100570008081B2D29B01AC0160E070E08BE191E040
:1005800035D28BE191E058D168EC70E080E090E0EA
:1005900036D3C15079F681E080931A0100D3C09020
:1005A0001601D0901701E0901801F09019016C1914
:1005B0007D098E099F09603C774289409105A8F02A
:1005C000EED26093160170931701809318019093F7
:1005D000190125E630E040E050E061E070E080E0A5
:1005E00090E00DD4663008F487C025E630E040E0A6
:1005F00050E061E070E080E090E001D4693508F4FB
:1006000041C06E35A0F06036D0F1633608F446C0C4
:10061000653608F07DC080916A00DF91CF911F910F
:100620000F91FF90EF90DF90CF90AF9070CEC3E02E
:1006300080916A0090E063E070E000D4FC01EF5F1D
:10064000FE4F19E1A12E09E1C02EE12C00E020E0CF
:1006500042816181808143DD80916A0090E063E0A6
:1006600070E0ECD3FC01EF5FFE4FE280018120815E
:1006700040E060E080E033DDC150D1F649C08091B8
:100680006A00EEDD80916A00DF91CF911F910F919A
:10069000FF90EF90DF90CF90AF9005CDC3E08091B9
:1006A0006A0090E063E070E0C9D3FC01EF5FFE4FA9
:1006B000428161818081E42EE694062F0695282FE1
:1006C0002695BAE0AB2ED9E1CD2E09DD80916A00E6
:1006D00090E063E070E0B2D3FC01EF5FFE4FE28098
:1006E000018180814E2D4695602F6695282F869535
:1006F000F6DCC150A1F60CC080916A00DF91CF9169
:100700001F910F91FF90EF90DF90CF90AF9037CE79
:10071000DF91CF911F910F91FF90EF90DF90CF90DD
:10072000AF90089522E543E061E070E08BE191E055
:1007300038C18BE191E000C0CF93DF93EC018F8152
:100740009885009709F010D58D8187FD04C060E081
:10075000DF91CF91C5C2DF91CF910895CF93DF9301
:10076000EC018D8187FD05C061E0BAD260E08D812A
:10077000EED281E08883DF91CF910895EF92FF92CE
:100780000F931F93CF93DF93EC017B018F819885AB
:10079000009709F0E9D49C858985981303C083E00C
:1007A00090E002C084E090E0B70148D38C019C83C4
:1007B0008B8342D498878F83009739F0A80160E03B
:1007C00070E0B1D5FA82E98204C01C821B821A82D1
:1007D0001982DF91CF911F910F91FF90EF900895B3
:1007E000FC0141E094858185981340E0562F529595
:1007F0005695569553705487862F90E09C0174E06F
:10080000359527957A95E1F72370218795958795FA
:1008100095958795837082876370638787819085BC
:10082000892B49F081E0521380E0841721F0618127
:100830007281CF01A3CF0895CF92DF92EF92FF9202
:100840000F931F93CF93DF93CDB7DEB727970FB6E4
:10085000F894DEBF0FBECDBF8C01DC0117968D91E1
:100860009C911897892B09F460C0A5D1F801C58423
:10087000D684E784F0886C197D098E099F096C3253
:1008800071408105910588F3F894D80113968D91F4
:100890009C9114979A8389831796ED91FC911897F0
:1008A0007F01BFEFEB1AFB0A80818F83D80151963D
:1008B000ED91FC915297908153968C91982B9E8349
:1008C0009081809589238D838D818C8388E08B83B3
:1008D0005E816D814F813B812C8189819A81D70115
:1008E000508347FD252F3A952083262F39F0441F4A
:1008F00000C000006083000000C0F2CF38E04D91DE
:1009000060830000019761F7D8015296FC93EE9343
:1009100051974F833B832C839A83898378944BD15F
:10092000F801658776878787908B27960FB6F894AE
:10093000DEBF0FBECDBFDF91CF911F910F91FF9012
:10094000EF90DF90CF9008951F93CF93DF93EC014A
:10095000162F8881882329F08D8187FD02C060E0F1
:10096000BFD11D838881882331F061E0812FB8D108
:1009700060E0812FECD1812F90E0FC01EC5DFF4F16
:10098000E491F0E0E65DFF4FE491F0E0FA8BE98B53
:10099000FC01E25EFF4F84918B8BDF91CF911F9121
:1009A0000895EF92FF920F931F93CF93DF931F92BF
:1009B000CDB7DEB77C018B01FC0110821682108658
:1009C0001782158616861786108A622F498308DFDC
:1009D000B801C701D3DE4981642FC7010F90DF91B1
:1009E000CF911F910F91FF90EF90AECF6F927F92BA
:1009F0009F92AF92BF92CF92DF92EF92FF920F93AE
:100A00001F93CF93DF93FC013B0189019A01818100
:100A100092816817790708F051C0C901AA27BB273E
:100A2000A82EC12ED22EE32EFF24BC2C902E468160
:100A3000442381F0C42FD0E090E0BE01FFD1A92E65
:100A40008C2D90E0BE01FAD1B92E802F90E0BE012E
:100A5000F5D1992E54858185C781D085581308C05A
:100A6000C30163E070E0EAD17E01E80EF91E17C011
:100A70007301EE0CFF1CEE0CFF1CEC0EFD1E832F11
:100A80009927AA27BB27E701C50FD11D442329F0C9
:100A9000642F70E090E0D2D101C0982F98838185B7
:100AA000D701A80FB11DAC928285D701A80FB11D47
:100AB000BC928385F701E80FF11D9082DF91CF9101
:100AC0001F910F91FF90EF90DF90CF90BF90AF906C
:100AD0009F907F906F900895962F50E060E070E0B7
:100AE000592B682BCB01BA01089583B7887F83BF48
:100AF0008AB58C7F81608ABD83B7877F83BF83B7C8
:100B0000887F836083BF089578941F920F920FB6F9
:100B10000F9211242F933F938F939F93AF93BF9383
:100B20008091300190913101A0913201B091330157
:100B300030912F0123E0230F2D3730F026E8230FCB
:100B40000296A11DB11D03C00196A11DB11D2093E8
:100B50002F018093300190933101A0933201B09323
:100B600033018091340190913501A0913601B0910B
:100B700037010196A11DB11D809334019093350179
:100B8000A0933601B0933701BF91AF919F918F91A0
:100B90003F912F910F900FBE0F901F9018952FB778
:100BA000F8946091300170913101809132019091FF
:100BB00033012FBF08953FB7F8948091340190918D
:100BC0003501A0913601B09137012FB508B602FE6C
:100BD00005C02F3F19F00196A11DB11D3FBF66272B
:100BE000782F892F9A2F620F711D811D911D42E070
:100BF000660F771F881F991F4A95D1F70895CF92E6
:100C0000DF92EF92FF92CF93DF936B017C01D3DFF2
:100C1000EB01C114D104E104F10471F0CCDF6C1BD1
:100C20007D0B683E7340A8F381E0C81AD108E10843
:100C3000F108C851DC4FEDCFDF91CF91FF90EF90DD
:100C4000DF90CF900895E1E0F0E081E280935700DB
:100C500084910895CF93C1B7F6DFC81749F001B664
:100C600007FE03C081B7875002C081B7855081BF9E
:100C7000789480B7806880BF80B7806480BF8CB56F
:100C800080648CBD8FEF8DBD80B7807F876080BF13
:100C900089B7846089BF29DF86B1876086B9379AB2
:100CA000CF910895863008F086503091380127B1F1
:100CB000932F9295990F990F907C2F72922B32FB64
:100CC000332730F93295307F932B97B997B1907FC6
:100CD000982B97B9369A3699FECF84B195B108957D
:100CE000CF93DF9390E0FC01E25EFF4F2491FC0183
:100CF000EC5DFF4F8491882339F190E0FC01E45DC5
:100D0000FF4FA491B0E0FC01E65DFF4F84916111BB
:100D100006C09FB7F8948C912095822313C062304F
:100D200069F4C82FD0E09FB7F8948C91322F30959A
:100D300083238C938881822B888305C09FB7F89486
:100D40008C91822B8C939FBFDF91CF910895A82F18
:100D5000B0E0FD01E25EFF4F9491FD01EC5DFF4FBD
:100D6000E491EE2311F1811103C08AB58F7304C0A1
:100D7000813021F48AB58F7C8ABD05C0843019F496
:100D80008CB58F7C8CBDF0E0E65DFF4FA491B0E0A8
:100D90002FB7611105C0F8948C919095892303C0F9
:100DA000F8948C91892B8C932FBF0895009721F094
:100DB000BC0180E090E0AEC20895CF93DF9300D0F5
:100DC00000D0CDB7DEB79B01AC016115710581057F
:100DD000910559F069833A834B835C8397D22981CB
:100DE0003A814B815C8184D003C060E070E0CB012C
:100DF0000F900F900F900F90DF91CF910895CF92A9
:100E0000DF92EF92FF926B017C01621773078407F8
:100E100095075CF4CA01B9016C197D098E099F0917
:100E2000CCDF6C0D7D1D8E1D9F1DFF90EF90DF9020
:100E3000CF9008950FDF23D933DBFECF0024552751
:100E400004C0080E591F880F991F009729F0769546
:100E50006795B8F37105B9F7802D952F0895AA1BF2
:100E6000BB1B51E107C0AA1FBB1FA617B70710F095
:100E7000A61BB70B881F991F5A95A9F780959095C7
:100E8000BC01CD01089597FB072E16F4009406D0FF
:100E900077FD08D0E4DF07FC05D03EF490958195FE
:100EA0009F4F0895709561957F4F0895A1E21A2E86
:100EB000AA1BBB1BFD010DC0AA1FBB1FEE1FFF1FFE
:100EC000A217B307E407F50720F0A21BB30BE40B4E
:100ED000F50B661F771F881F991F1A9469F7609595
:100EE0007095809590959B01AC01BD01CF0108954F
:100EF000052E97FB16F400940FD057FD05D0D6DFD2
:100F000007FC02D046F408C05095409530952195D5
:100F10003F4F4F4F5F4F0895909580957095619525
:100F20007F4F8F4F9F4F089568940013E894A0E07F
:100F3000B0E0ECE9F7E01DC0EFEFE7F959016A0115
:100F40005E23550FEE08FE2C87019B01AC019E230A
:100F5000990F660B762FCB0141D0CDB7DEB7EAE013
:100F600024C02F923F924F925F926F927F928F9206
:100F70009F92AF92BF92CF92DF92EF92FF920F9328
:100F80001F93CF93DF93CDB7DEB7CA1BDB0B0FB632
:100F9000F894DEBF0FBECDBF09942A8839884888EF
:100FA0005F846E847D848C849B84AA84B984C88485
:100FB000DF80EE80FD800C811B81AA81B981CE0F7C
:100FC000D11D0FB6F894DEBF0FBECDBFED01089561
:100FD000EE0FFF1F0590F491E02D0994DF93CF935E
:100FE0009F92A0E49A2E0024D001E001F001169512
:100FF0000795F794E794D794C794B794A79448F4C7
:101000001068A20FB31FC41FD51FE61FF71F081ECD
:10101000191E220F331F441F551F661F771F881F7D
:10102000991F9A9421F79D01AE01BF01C0011124BF
:101030009F90CF91DF910895CF93DF9382309105F8
:1010400010F482E090E0E0913B01F0913C0120E05F
:1010500030E0A0E0B0E0309739F14081518148178D
:101060005907B8F04817590771F482819381109796
:1010700029F013969C938E9312972CC090933C0169
:1010800080933B0127C02115310531F042175307EA
:1010900018F0A901DB0101C0EF019A01BD01DF01D8
:1010A0000280F381E02DD7CF21153105F9F0281BFF
:1010B000390B2430310580F48A819B8161157105DB
:1010C00021F0FB019383828304C090933C018093C1
:1010D0003B01FE01329644C0FE01E20FF31F8193F3
:1010E000919322503109398328833AC020913901E4
:1010F00030913A01232B41F420916200309163003A
:1011000030933A01209339012091600030916100C1
:101110002115310541F42DB73EB74091640050913F
:101120006500241B350BE0913901F0913A01E2177B
:10113000F307A0F42E1B3F0B2817390778F0AC01FA
:101140004E5F5F4F2417350748F04E0F5F1F5093D7
:101150003A01409339018193919302C0E0E0F0E0BD
:10116000CF01DF91CF910895CF93DF93009709F4DA
:1011700087C0FC01329713821282C0913B01D0914B
:101180003C01209781F420813181280F391F809103
:10119000390190913A018217930779F5F0933A015A
:1011A000E09339016DC0DE0120E030E0AE17BF07EB
:1011B00050F412964D915C9113979D014115510584
:1011C00009F1DA01F3CFB383A28340815181840F07
:1011D000951F8A179B0771F48D919C911197840F2D
:1011E000951F02969183808312968D919C911397FF
:1011F000938382832115310529F4F0933C01E09318
:101200003B013EC0D9011396FC93EE9312974D918A
:101210005D91A40FB51FEA17FB0779F480819181D6
:10122000840F951F0296D90111969C938E9382810B
:10123000938113969C938E931297E0E0F0E08A815D
:101240009B81009719F0FE01EC01F9CFCE010296C7
:1012500028813981820F931F2091390130913A0101
:101260002817390769F4309729F410923C0110923D
:101270003B0102C013821282D0933A01C09339011C
:10128000DF91CF910895A0E0B0E0E8E4F9E06FCEFF
:10129000EC01688179818A819B81611571058105E5
:1012A000910521F464E279ED8BE597E02DE133EFD0
:1012B00041E050E01DDE49015A0127EA31E440E0F7
:1012C00050E032DE69017A01C501B4012CEE34EF41
:1012D0004FEF5FEF29DE89019A01C00ED11EE21E99
:1012E000F31EF7FE06C081E0C81AD108E10880E8C5
:1012F000F80AC882D982EA82FB82C701B6019F77C9
:10130000CDB7DEB7ECE04FCEBEDF089586E690E0C5
:10131000BADF089560936600709367008093680059
:10132000909369000895DC0101C06D9341505040D5
:10133000E0F7089510E0C0E3D0E003C0FE014ADE0C
:0C1340002296C233D107D1F7F894FFCFFA
:10134C0000003D018000010000000604040440235D
:10135C00077F28466000007F2C007F600000600043
:10136C00007070000C7F4A00600070700070707F1D
:10137C0028467F28466060606060607F28467F2832
:10138C00460070700070707F28467F28467F284684
:10139C007F60007F60007F60007F600000707000E5
:1013AC0070700070700404040404042020202020B9
:1013BC00202020206060606060606060604A006097
:1013CC004A00607F60007F60006060606060606009
:1013DC0060604A00604A00604A006004040404042F
:1013EC00047F00006018380060387F300000007FF8
:0613FC0048484800000013
:00000001FF
